:100000000C945A000C9464000C9464000C946400EA
:100010000C9464000C9464000C9464000C946400D0
:100020000C9464000C9464000C9464000C946400C0
:100030000C9464000C9464000C9464000C946400B0
:100040000C9464000C9464000C9464000C946400A0
:100050000C9464000C9464000C9464000C94640090
:100060000C9464000C9464000C9464000C94640080
:100070000C9464000C9464000C9464000C94640070
:100080000C9464000C9464000C9464000C94640060
:100090000C9464000C9464000C9464000C94640050
:1000A0000C9464000C9464000C9464000C94640040
:1000B0000C94640011241FBECFEFD8E0DEBFCDBF8B
:1000C0000E9466000C9440040C940000CF93DF93D0
:1000D000CDB7DEB7CF57D2400FB6F894DEBF0FBE14
:1000E000CDBF1B821A8282E08C838CE090E00E945C
:1000F0003402CE0188960E94DB01198205C18981F4
:10010000882F90E0880F991F9E012F5F3F4F820F2D
:10011000931F8796FC0120813181CE018596A9012C
:1001200063E00E948901CE0185960E94660280E00C
:1001300090E0A8E4B2E48D839E83AF83B88720E08B
:1001400030E04AE753E46D817E818F8198850E947B
:100150008803DC01CB018F8B988FA98FBA8F20E0A9
:1001600030E040E85FE36F89788D898D9A8D0E9439
:10017000020388232CF481E090E09C8F8B8F3FC09A
:1001800020E03FEF4FE757E46F89788D898D9A8D96
:100190000E94830318164CF520E030E040E251E461
:1001A0006D817E818F8198850E948803DC01CB015F
:1001B000BC01CD010E940703DC01CB019C8F8B8F1A
:1001C0000FC089E190E09E8F8D8F8D8D9E8D019760
:1001D000F1F79E8F8D8F8B8D9C8D01979C8F8B8FD0
:1001E0008B8D9C8D892B69F714C06F89788D898DD3
:1001F0009A8D0E940703DC01CB019C8F8B8F8B8D26
:100200009C8D98A38F8F8F8D98A10197F1F798A35C
:100210008F8F8CE20E94510280E090E0A8E4B2E46B
:1002200089879A87AB87BC8720E030E04AE753E4B0
:1002300069857A858B859C850E948803DC01CB01CA
:100240008D879E87AF87B88B20E030E040E85FE382
:100250006D857E858F8598890E94020388232CF402
:1002600081E090E09A8B898B3FC020E03FEF4FE721
:1002700057E46D857E858F8598890E9483031816C3
:100280004CF520E030E040E251E469857A858B85C9
:100290009C850E948803DC01CB01BC01CD010E943A
:1002A0000703DC01CB019A8B898B0FC089E190E0B9
:1002B0009C8B8B8B8B899C890197F1F79C8B8B8B0B
:1002C00089899A8901979A8B898B89899A89892B3F
:1002D00069F714C06D857E858F8598890E94070314
:1002E000DC01CB019A8B898B89899A899E8B8D8BB6
:1002F0008D899E890197F1F79E8B8D8B80E20E94FC
:10030000510289818F5F898389818F3308F4F7CE09
:10031000F4CECF93DF9300D000D01F92CDB7DEB7DD
:100320009A8389836B835D834C838B8181508B831C
:1003300036C08B81882F90E029813A81F901E80F3E
:10034000F91F4C815D819A01ADECBCEC0E94310437
:10035000969587959695879596958795880F991F79
:100360009C01220F331F220F331F820F931F9A010C
:10037000281B390BC901805D80838C819D819C0184
:10038000ADECBCEC0E9431049695879596958795C7
:10039000969587959D838C838B8181508B838B81F0
:1003A0008F3F39F600000F900F900F900F900F9035
:1003B000DF91CF910895CF93DF93CDB7DEB7299723
:1003C0000FB6F894DEBF0FBECDBF998788871B821A
:1003D0001A8282E090E09D838C8337C081E089831C
:1003E00082E090E09F838E830FC08C819D812E815F
:1003F0003F81B9010E941D04892B09F419828E8165
:100400009F8101969F838E832E813F818C819D8168
:100410002817390750F38981882391F08A819B81BD
:10042000880F991F28853985820F931F2C813D8164
:10043000FC01318320838A819B8101969B838A837F
:100440008C819D8101969D838C838C819D818D32D1
:10045000914020F2000029960FB6F894DEBF0FBE3F
:10046000CDBFDF91CF910895CF93DF9300D0CDB76B
:10047000DEB79A83898381EC90E021EC30E0F901CA
:1004800020812860FC01208384EC90E029813A815E
:10049000FC013183208300000F900F90DF91CF91FA
:1004A0000895CF93DF931F92CDB7DEB78983000005
:1004B00080EC90E0FC01808186EC90E02981FC01D9
:1004C000208300000F90DF91CF910895CF93DF93A9
:1004D000CDB7DEB761970FB6F894DEBF0FBECDBFC4
:1004E000998B888B198280C080E090E0A8E4B2E408
:1004F0008A839B83AC83BD8320E030E04AE753E4EA
:100500006A817B818C819D810E948803DC01CB0103
:100510008E839F83A887B98720E030E040E85FE3BF
:100520006E817F81888599850E94020388232CF43F
:1005300081E090E09B878A873FC020E03FEF4FE754
:1005400057E46E817F81888599850E948303181600
:100550004CF520E030E040E251E46A817B818C81FF
:100560009D810E948803DC01CB01BC01CD010E946A
:100570000703DC01CB019B878A870FC089E190E0EC
:100580009D878C878C859D850197F1F79D878C874A
:100590008A859B8501979B878A878A859B85892B7E
:1005A00069F714C06E817F81888599850E94070351
:1005B000DC01CB019B878A878A859B859F878E87F5
:1005C0008E859F850197F1F79F878E878981882F78
:1005D00090E028893989820F931FFC0180810E9455
:1005E000510289818F5F89838981853008F47CCFAE
:1005F000000061960FB6F894DEBF0FBECDBFDF914D
:10060000CF9108950E94360308F481E008950E9476
:10061000620388F09F5798F0B92F9927B751B0F02F
:10062000E1F0660F771F881F991F1AF0BA95C9F776
:1006300014C0B13091F00E947C03B1E008950C9495
:100640007C03672F782F8827B85F39F0B93FCCF348
:10065000869577956795B395D9F73EF490958095F3
:10066000709561957F4F8F4F9F4F0895990F0008A8
:10067000550FAA0BE0E8FEEF16161706E807F90774
:10068000C0F012161306E407F50798F0621B730B0F
:10069000840B950B39F40A2661F0232B242B252B90
:1006A00021F408950A2609F4A140A6958FEF811D33
:1006B000811D089557FD9058440F551F59F05F3F15
:1006C00071F04795880F97FB991F61F09F3F79F074
:1006D00087950895121613061406551FF2CF4695F6
:1006E000F1DF08C0161617061806991FF1CF869578
:1006F0007105610508940895E894BB27662777275C
:10070000CB0197F908950E94360308F48FEF0895FE
:100710000E949B030C940C040E94FE0338F00E947C
:10072000050420F0952311F00C94F5030C94FB03C1
:1007300011240C947D030E945A0370F3959FC1F31A
:10074000950F50E0551F629FF001729FBB27F00D7F
:10075000B11D639FAA27F00DB11DAA1F649F6627D4
:10076000B00DA11D661F829F2227B00DA11D621F23
:10077000739FB00DA11D621F839FA00D611D221FDD
:10078000749F3327A00D611D231F849F600D211DC1
:10079000822F762F6A2F11249F5750409AF0F1F044
:1007A00088234AF0EE0FFF1FBB1F661F771F881FAD
:1007B00091505040A9F79E3F510580F00C94F503ED
:1007C0000C947D035F3FE4F3983ED4F386957795D0
:1007D0006795B795F795E7959F5FC1F7FE2B880F53
:1007E000911D9695879597F9089597F99F6780E8E9
:1007F00070E060E008959FEF80EC089500240A9473
:100800001616170618060906089500240A941216EB
:100810001306140605060895092E0394000C11F41E
:10082000882352F0BB0F40F4BF2B11F460FF04C0CB
:100830006F5F7F4F8F4F9F4F0895AA1BBB1B51E1E6
:1008400007C0AA1FBB1FA617B70710F0A61BB70B40
:10085000881F991F5A95A9F780959095BC01CD01E5
:100860000895A29FB001B39FC001A39F700D811D89
:100870001124911DB29F700D811D1124911D0895A9
:04088000F894FFCF1A
:00000001FF
